{
  "contractName": "Rideshare",
  "abi": [
    {
      "constant": false,
      "inputs": [],
      "name": "kill",
      "outputs": [],
      "payable": false,
      "stateMutability": "nonpayable",
      "type": "function"
    },
    {
      "constant": true,
      "inputs": [
        {
          "name": "",
          "type": "uint256"
        }
      ],
      "name": "rides",
      "outputs": [
        {
          "name": "driver",
          "type": "address"
        },
        {
          "name": "drivingCost",
          "type": "uint256"
        },
        {
          "name": "capacity",
          "type": "uint256"
        },
        {
          "name": "originAddress",
          "type": "string"
        },
        {
          "name": "destAddress",
          "type": "string"
        },
        {
          "name": "createdAt",
          "type": "uint256"
        },
        {
          "name": "confirmedAt",
          "type": "uint256"
        },
        {
          "name": "departAt",
          "type": "uint256"
        }
      ],
      "payable": false,
      "stateMutability": "view",
      "type": "function"
    },
    {
      "constant": true,
      "inputs": [
        {
          "name": "",
          "type": "address"
        }
      ],
      "name": "dropoff",
      "outputs": [
        {
          "name": "",
          "type": "string"
        }
      ],
      "payable": false,
      "stateMutability": "view",
      "type": "function"
    },
    {
      "constant": true,
      "inputs": [],
      "name": "owner",
      "outputs": [
        {
          "name": "",
          "type": "address"
        }
      ],
      "payable": false,
      "stateMutability": "view",
      "type": "function"
    },
    {
      "constant": true,
      "inputs": [],
      "name": "rideCount",
      "outputs": [
        {
          "name": "",
          "type": "uint256"
        }
      ],
      "payable": false,
      "stateMutability": "view",
      "type": "function"
    },
    {
      "constant": false,
      "inputs": [
        {
          "name": "newOwner",
          "type": "address"
        }
      ],
      "name": "transferOwnership",
      "outputs": [],
      "payable": false,
      "stateMutability": "nonpayable",
      "type": "function"
    },
    {
      "constant": false,
      "inputs": [
        {
          "name": "_driverCost",
          "type": "uint256"
        },
        {
          "name": "_capacity",
          "type": "uint256"
        },
        {
          "name": "_originAddress",
          "type": "string"
        },
        {
          "name": "_destAddress",
          "type": "string"
        },
        {
          "name": "_confirmedAt",
          "type": "uint256"
        },
        {
          "name": "_departAt",
          "type": "uint256"
        }
      ],
      "name": "createRide",
      "outputs": [],
      "payable": false,
      "stateMutability": "nonpayable",
      "type": "function"
    },
    {
      "constant": false,
      "inputs": [
        {
          "name": "rideNumber",
          "type": "uint256"
        },
        {
          "name": "destination",
          "type": "string"
        }
      ],
      "name": "joinRide",
      "outputs": [],
      "payable": true,
      "stateMutability": "payable",
      "type": "function"
    },
    {
      "constant": true,
      "inputs": [
        {
          "name": "rideNumber",
          "type": "uint256"
        }
      ],
      "name": "getPassengers",
      "outputs": [
        {
          "name": "",
          "type": "address[]"
        }
      ],
      "payable": false,
      "stateMutability": "view",
      "type": "function"
    },
    {
      "constant": true,
      "inputs": [
        {
          "name": "rideNumber",
          "type": "uint256"
        },
        {
          "name": "passenger",
          "type": "address"
        }
      ],
      "name": "getPassengerRideState",
      "outputs": [
        {
          "name": "",
          "type": "uint8"
        }
      ],
      "payable": false,
      "stateMutability": "view",
      "type": "function"
    },
    {
      "constant": true,
      "inputs": [
        {
          "name": "rideNumber",
          "type": "uint256"
        }
      ],
      "name": "getRide",
      "outputs": [
        {
          "name": "_driver",
          "type": "address"
        },
        {
          "name": "_drivingCost",
          "type": "uint256"
        },
        {
          "name": "_capacity",
          "type": "uint256"
        },
        {
          "name": "_originAddress",
          "type": "string"
        },
        {
          "name": "_destAddress",
          "type": "string"
        },
        {
          "name": "_createdAt",
          "type": "uint256"
        },
        {
          "name": "_confirmedAt",
          "type": "uint256"
        },
        {
          "name": "_departAt",
          "type": "uint256"
        }
      ],
      "payable": false,
      "stateMutability": "view",
      "type": "function"
    },
    {
      "constant": true,
      "inputs": [],
      "name": "getRideCount",
      "outputs": [
        {
          "name": "",
          "type": "uint256"
        }
      ],
      "payable": false,
      "stateMutability": "view",
      "type": "function"
    },
    {
      "constant": false,
      "inputs": [
        {
          "name": "rideNumber",
          "type": "uint256"
        },
        {
          "name": "passengerAcct",
          "type": "address"
        }
      ],
      "name": "passengerInRide",
      "outputs": [
        {
          "name": "",
          "type": "bool"
        }
      ],
      "payable": false,
      "stateMutability": "nonpayable",
      "type": "function"
    },
    {
      "constant": false,
      "inputs": [
        {
          "name": "rideNumber",
          "type": "uint256"
        }
      ],
      "name": "cancelRide",
      "outputs": [],
      "payable": false,
      "stateMutability": "nonpayable",
      "type": "function"
    },
    {
      "constant": false,
      "inputs": [
        {
          "name": "rideNumber",
          "type": "uint256"
        }
      ],
      "name": "confirmDriverMet",
      "outputs": [],
      "payable": false,
      "stateMutability": "nonpayable",
      "type": "function"
    },
    {
      "constant": false,
      "inputs": [
        {
          "name": "rideNumber",
          "type": "uint256"
        },
        {
          "name": "passengerAddresses",
          "type": "address[]"
        }
      ],
      "name": "confirmPassengersMet",
      "outputs": [],
      "payable": false,
      "stateMutability": "nonpayable",
      "type": "function"
    },
    {
      "constant": false,
      "inputs": [
        {
          "name": "rideNumber",
          "type": "uint256"
        }
      ],
      "name": "enRouteList",
      "outputs": [],
      "payable": false,
      "stateMutability": "nonpayable",
      "type": "function"
    },
    {
      "constant": false,
      "inputs": [
        {
          "name": "rideNumber",
          "type": "uint256"
        }
      ],
      "name": "arrived",
      "outputs": [],
      "payable": false,
      "stateMutability": "nonpayable",
      "type": "function"
    }
  ],
  "bytecode": "0x6080604052336000806101000a81548173ffffffffffffffffffffffffffffffffffffffff021916908373ffffffffffffffffffffffffffffffffffffffff1602179055506120cd806100536000396000f3006080604052600436106100fc576000357c0100000000000000000000000000000000000000000000000000000000900463ffffffff1680631124ab491461010157806321c1fc7f1461017157806341c0e1b51461019e5780634507d58a146101b55780635205f1121461021b5780636d4d31f2146103835780637c7b0ff414610405578063825b3f171461056d5780638959a5d1146106295780638da5cb5b146106545780638e90c5a2146106ab578063977c876e1461071a578063a6f07b29146107f1578063b47c18831461081e578063c4ef54d614610849578063f2c46f72146108ae578063f2fde38b146108db578063fd4e13051461091e575b600080fd5b34801561010d57600080fd5b5061016f600480360381019080803590602001909291908035906020019082018035906020019080806020026020016040519081016040528093929190818152602001838360200280828437820191505050505050919291929050505061094b565b005b34801561017d57600080fd5b5061019c60048036038101908080359060200190929190505050610b73565b005b3480156101aa57600080fd5b506101b3610d80565b005b61021960048036038101908080359060200190929190803590602001908201803590602001908080601f0160208091040260200160405190810160405280939291908181526020018383808284378201915050505050509192919290505050610e11565b005b34801561022757600080fd5b5061024660048036038101908080359060200190929190505050610fe2565b604051808973ffffffffffffffffffffffffffffffffffffffff1673ffffffffffffffffffffffffffffffffffffffff1681526020018881526020018781526020018060200180602001868152602001858152602001848152602001838103835288818151815260200191508051906020019080838360005b838110156102da5780820151818401526020810190506102bf565b50505050905090810190601f1680156103075780820380516001836020036101000a031916815260200191505b50838103825287818151815260200191508051906020019080838360005b83811015610340578082015181840152602081019050610325565b50505050905090810190601f16801561036d5780820380516001836020036101000a031916815260200191505b509a505050505050505050505060405180910390f35b34801561038f57600080fd5b506103ae60048036038101908080359060200190929190505050611189565b6040518080602001828103825283818151815260200191508051906020019060200280838360005b838110156103f15780820151818401526020810190506103d6565b505050509050019250505060405180910390f35b34801561041157600080fd5b5061043060048036038101908080359060200190929190505050611237565b604051808973ffffffffffffffffffffffffffffffffffffffff1673ffffffffffffffffffffffffffffffffffffffff1681526020018881526020018781526020018060200180602001868152602001858152602001848152602001838103835288818151815260200191508051906020019080838360005b838110156104c45780820151818401526020810190506104a9565b50505050905090810190601f1680156104f15780820380516001836020036101000a031916815260200191505b50838103825287818151815260200191508051906020019080838360005b8381101561052a57808201518184015260208101905061050f565b50505050905090810190601f1680156105575780820380516001836020036101000a031916815260200191505b509a505050505050505050505060405180910390f35b34801561057957600080fd5b506105ae600480360381019080803573ffffffffffffffffffffffffffffffffffffffff1690602001909291905050506113fe565b6040518080602001828103825283818151815260200191508051906020019080838360005b838110156105ee5780820151818401526020810190506105d3565b50505050905090810190601f16801561061b5780820380516001836020036101000a031916815260200191505b509250505060405180910390f35b34801561063557600080fd5b5061063e6114ae565b6040518082815260200191505060405180910390f35b34801561066057600080fd5b506106696114bb565b604051808273ffffffffffffffffffffffffffffffffffffffff1673ffffffffffffffffffffffffffffffffffffffff16815260200191505060405180910390f35b3480156106b757600080fd5b506106f660048036038101908080359060200190929190803573ffffffffffffffffffffffffffffffffffffffff1690602001909291905050506114e0565b6040518082600581111561070657fe5b60ff16815260200191505060405180910390f35b34801561072657600080fd5b506107ef6004803603810190808035906020019092919080359060200190929190803590602001908201803590602001908080601f0160208091040260200160405190810160405280939291908181526020018383808284378201915050505050509192919290803590602001908201803590602001908080601f01602080910402602001604051908101604052809392919081815260200183838082843782019150505050505091929192908035906020019092919080359060200190929190505050611558565b005b3480156107fd57600080fd5b5061081c600480360381019080803590602001909291905050506116bb565b005b34801561082a57600080fd5b50610833611975565b6040518082815260200191505060405180910390f35b34801561085557600080fd5b5061089460048036038101908080359060200190929190803573ffffffffffffffffffffffffffffffffffffffff16906020019092919050505061197b565b604051808215151515815260200191505060405180910390f35b3480156108ba57600080fd5b506108d960048036038101908080359060200190929190505050611a45565b005b3480156108e757600080fd5b5061091c600480360381019080803573ffffffffffffffffffffffffffffffffffffffff169060200190929190505050611b94565b005b34801561092a57600080fd5b5061094960048036038101908080359060200190929190505050611c64565b005b60008060018481548110151561095d57fe5b90600052602060002090600a020191508160000160009054906101000a900473ffffffffffffffffffffffffffffffffffffffff1673ffffffffffffffffffffffffffffffffffffffff163373ffffffffffffffffffffffffffffffffffffffff161415156109cb57600080fd5b600090505b8251811015610b6d57600260058111156109e657fe5b82600801600085848151811015156109fa57fe5b9060200190602002015173ffffffffffffffffffffffffffffffffffffffff1673ffffffffffffffffffffffffffffffffffffffff16815260200190815260200160002060020160009054906101000a900460ff166005811115610a5a57fe5b1415610ae25760038260080160008584815181101515610a7657fe5b9060200190602002015173ffffffffffffffffffffffffffffffffffffffff1673ffffffffffffffffffffffffffffffffffffffff16815260200190815260200160002060020160006101000a81548160ff02191690836005811115610ad857fe5b0217905550610b60565b60018260080160008584815181101515610af857fe5b9060200190602002015173ffffffffffffffffffffffffffffffffffffffff1673ffffffffffffffffffffffffffffffffffffffff16815260200190815260200160002060020160006101000a81548160ff02191690836005811115610b5a57fe5b02179055505b80806001019150506109d0565b50505050565b600080600183815481101515610b8557fe5b90600052602060002090600a02019150600090505b8160090180549050811015610d7b5760036005811115610bb657fe5b8260080160008460090184815481101515610bcd57fe5b9060005260206000200160009054906101000a900473ffffffffffffffffffffffffffffffffffffffff1673ffffffffffffffffffffffffffffffffffffffff1673ffffffffffffffffffffffffffffffffffffffff16815260200190815260200160002060020160009054906101000a900460ff166005811115610c4e57fe5b1415610d6e578160080160008360090183815481101515610c6b57fe5b9060005260206000200160009054906101000a900473ffffffffffffffffffffffffffffffffffffffff1673ffffffffffffffffffffffffffffffffffffffff1673ffffffffffffffffffffffffffffffffffffffff168152602001908152602001600020600101600360008460090184815481101515610ce857fe5b9060005260206000200160009054906101000a900473ffffffffffffffffffffffffffffffffffffffff1673ffffffffffffffffffffffffffffffffffffffff1673ffffffffffffffffffffffffffffffffffffffff1681526020019081526020016000209080546001816001161561010002031660029004610d6c929190611de0565b505b8080600101915050610b9a565b505050565b6000809054906101000a900473ffffffffffffffffffffffffffffffffffffffff1673ffffffffffffffffffffffffffffffffffffffff163373ffffffffffffffffffffffffffffffffffffffff161415610e0f576000809054906101000a900473ffffffffffffffffffffffffffffffffffffffff1673ffffffffffffffffffffffffffffffffffffffff16ff5b565b600080600184815481101515610e2357fe5b90600052602060002090600a02019150816001015434141515610e4557600080fd5b8160000160009054906101000a900473ffffffffffffffffffffffffffffffffffffffff1673ffffffffffffffffffffffffffffffffffffffff163373ffffffffffffffffffffffffffffffffffffffff1614151515610ea457600080fd5b6000826002015414151515610eb857600080fd5b8160080160003373ffffffffffffffffffffffffffffffffffffffff1673ffffffffffffffffffffffffffffffffffffffff168152602001908152602001600020905034816000018190555060008160020160006101000a81548160ff02191690836005811115610f2557fe5b021790555082816001019080519060200190610f42929190611e67565b50600184815481101515610f5257fe5b90600052602060002090600a02016009013390806001815401808255809150509060018203906000526020600020016000909192909190916101000a81548173ffffffffffffffffffffffffffffffffffffffff021916908373ffffffffffffffffffffffffffffffffffffffff1602179055505081600201600081548092919060019003919050555050505050565b600181815481101515610ff157fe5b90600052602060002090600a02016000915090508060000160009054906101000a900473ffffffffffffffffffffffffffffffffffffffff1690806001015490806002015490806003018054600181600116156101000203166002900480601f0160208091040260200160405190810160405280929190818152602001828054600181600116156101000203166002900480156110cf5780601f106110a4576101008083540402835291602001916110cf565b820191906000526020600020905b8154815290600101906020018083116110b257829003601f168201915b505050505090806004018054600181600116156101000203166002900480601f01602080910402602001604051908101604052809291908181526020018280546001816001161561010002031660029004801561116d5780601f106111425761010080835404028352916020019161116d565b820191906000526020600020905b81548152906001019060200180831161115057829003601f168201915b5050505050908060050154908060060154908060070154905088565b606060018281548110151561119a57fe5b90600052602060002090600a020160090180548060200260200160405190810160405280929190818152602001828054801561122b57602002820191906000526020600020905b8160009054906101000a900473ffffffffffffffffffffffffffffffffffffffff1673ffffffffffffffffffffffffffffffffffffffff16815260200190600101908083116111e1575b50505050509050919050565b600080600060608060008060008060018a81548110151561125457fe5b90600052602060002090600a020190508060000160009054906101000a900473ffffffffffffffffffffffffffffffffffffffff16816001015482600201548360030184600401856005015486600601548760070154848054600181600116156101000203166002900480601f01602080910402602001604051908101604052809291908181526020018280546001816001161561010002031660029004801561133f5780601f106113145761010080835404028352916020019161133f565b820191906000526020600020905b81548152906001019060200180831161132257829003601f168201915b50505050509450838054600181600116156101000203166002900480601f0160208091040260200160405190810160405280929190818152602001828054600181600116156101000203166002900480156113db5780601f106113b0576101008083540402835291602001916113db565b820191906000526020600020905b8154815290600101906020018083116113be57829003601f168201915b505050505093509850985098509850985098509850985050919395975091939597565b60036020528060005260406000206000915090508054600181600116156101000203166002900480601f0160208091040260200160405190810160405280929190818152602001828054600181600116156101000203166002900480156114a65780601f1061147b576101008083540402835291602001916114a6565b820191906000526020600020905b81548152906001019060200180831161148957829003601f168201915b505050505081565b6000600180549050905090565b6000809054906101000a900473ffffffffffffffffffffffffffffffffffffffff1681565b60006001838154811015156114f157fe5b90600052602060002090600a020160080160008373ffffffffffffffffffffffffffffffffffffffff1673ffffffffffffffffffffffffffffffffffffffff16815260200190815260200160002060020160009054906101000a900460ff16905092915050565b60606001610120604051908101604052803373ffffffffffffffffffffffffffffffffffffffff168152602001898152602001888152602001878152602001868152602001428152602001858152602001848152602001838152509080600181540180825580915050906001820390600052602060002090600a02016000909192909190915060008201518160000160006101000a81548173ffffffffffffffffffffffffffffffffffffffff021916908373ffffffffffffffffffffffffffffffffffffffff16021790555060208201518160010155604082015181600201556060820151816003019080519060200190611655929190611ee7565b506080820151816004019080519060200190611672929190611ee7565b5060a0820151816005015560c0820151816006015560e082015181600701556101008201518160090190805190602001906116ae929190611f67565b5050505050505050505050565b6000806001838154811015156116cd57fe5b90600052602060002090600a020191508160000160009054906101000a900473ffffffffffffffffffffffffffffffffffffffff1673ffffffffffffffffffffffffffffffffffffffff163373ffffffffffffffffffffffffffffffffffffffff16141561186057600090505b816009018054905081101561185757816009018181548110151561175a57fe5b9060005260206000200160009054906101000a900473ffffffffffffffffffffffffffffffffffffffff1673ffffffffffffffffffffffffffffffffffffffff166108fc83600801600085600901858154811015156117b557fe5b9060005260206000200160009054906101000a900473ffffffffffffffffffffffffffffffffffffffff1673ffffffffffffffffffffffffffffffffffffffff1673ffffffffffffffffffffffffffffffffffffffff168152602001908152602001600020600001549081150290604051600060405180830381858888f19350505050158015611849573d6000803e3d6000fd5b50808060010191505061173a565b61185f610d80565b5b6102588260050154014210151561187657600080fd5b611880833361197b565b15611970573373ffffffffffffffffffffffffffffffffffffffff166108fc8360080160003373ffffffffffffffffffffffffffffffffffffffff1673ffffffffffffffffffffffffffffffffffffffff168152602001908152602001600020600001549081150290604051600060405180830381858888f1935050505015801561190f573d6000803e3d6000fd5b508160020160008154809291906001019190505550600360003373ffffffffffffffffffffffffffffffffffffffff1673ffffffffffffffffffffffffffffffffffffffff168152602001908152602001600020600061196f9190611ff1565b5b505050565b60025481565b600080600060018581548110151561198f57fe5b90600052602060002090600a02019150600090505b8160090180549050811015611a38578373ffffffffffffffffffffffffffffffffffffffff1682600901828154811015156119db57fe5b9060005260206000200160009054906101000a900473ffffffffffffffffffffffffffffffffffffffff1673ffffffffffffffffffffffffffffffffffffffff161415611a2b5760019250611a3d565b80806001019150506119a4565b600092505b505092915050565b6000611a51823361197b565b1515611a5c57600080fd5b600182815481101515611a6b57fe5b90600052602060002090600a020190508060000160009054906101000a900473ffffffffffffffffffffffffffffffffffffffff1673ffffffffffffffffffffffffffffffffffffffff166108fc8260080160003373ffffffffffffffffffffffffffffffffffffffff1673ffffffffffffffffffffffffffffffffffffffff168152602001908152602001600020600001549081150290604051600060405180830381858888f19350505050158015611b29573d6000803e3d6000fd5b5060048160080160003373ffffffffffffffffffffffffffffffffffffffff1673ffffffffffffffffffffffffffffffffffffffff16815260200190815260200160002060020160006101000a81548160ff02191690836005811115611b8b57fe5b02179055505050565b6000809054906101000a900473ffffffffffffffffffffffffffffffffffffffff1673ffffffffffffffffffffffffffffffffffffffff163373ffffffffffffffffffffffffffffffffffffffff161415611c6157600073ffffffffffffffffffffffffffffffffffffffff168173ffffffffffffffffffffffffffffffffffffffff16141515611c6057806000806101000a81548173ffffffffffffffffffffffffffffffffffffffff021916908373ffffffffffffffffffffffffffffffffffffffff1602179055505b5b50565b6000611c70823361197b565b1515611c7b57600080fd5b600182815481101515611c8a57fe5b90600052602060002090600a0201905060016005811115611ca757fe5b8160080160003373ffffffffffffffffffffffffffffffffffffffff1673ffffffffffffffffffffffffffffffffffffffff16815260200190815260200160002060020160009054906101000a900460ff166005811115611d0457fe5b1415611d755760038160080160003373ffffffffffffffffffffffffffffffffffffffff1673ffffffffffffffffffffffffffffffffffffffff16815260200190815260200160002060020160006101000a81548160ff02191690836005811115611d6b57fe5b0217905550611ddc565b60028160080160003373ffffffffffffffffffffffffffffffffffffffff1673ffffffffffffffffffffffffffffffffffffffff16815260200190815260200160002060020160006101000a81548160ff02191690836005811115611dd657fe5b02179055505b5050565b828054600181600116156101000203166002900490600052602060002090601f016020900481019282601f10611e195780548555611e56565b82800160010185558215611e5657600052602060002091601f016020900482015b82811115611e55578254825591600101919060010190611e3a565b5b509050611e639190612039565b5090565b828054600181600116156101000203166002900490600052602060002090601f016020900481019282601f10611ea857805160ff1916838001178555611ed6565b82800160010185558215611ed6579182015b82811115611ed5578251825591602001919060010190611eba565b5b509050611ee39190612039565b5090565b828054600181600116156101000203166002900490600052602060002090601f016020900481019282601f10611f2857805160ff1916838001178555611f56565b82800160010185558215611f56579182015b82811115611f55578251825591602001919060010190611f3a565b5b509050611f639190612039565b5090565b828054828255906000526020600020908101928215611fe0579160200282015b82811115611fdf5782518260006101000a81548173ffffffffffffffffffffffffffffffffffffffff021916908373ffffffffffffffffffffffffffffffffffffffff16021790555091602001919060010190611f87565b5b509050611fed919061205e565b5090565b50805460018160011615610100020316600290046000825580601f106120175750612036565b601f0160209004906000526020600020908101906120359190612039565b5b50565b61205b91905b8082111561205757600081600090555060010161203f565b5090565b90565b61209e91905b8082111561209a57600081816101000a81549073ffffffffffffffffffffffffffffffffffffffff021916905550600101612064565b5090565b905600a165627a7a72305820ea7d7bf6b6f2f778a8a518daf55e155df9b084b700000e04ba67ae6e2e3c0f990029",
  "source": "pragma solidity ^0.4.2;\r\n\r\nimport './zeppelin/lifecycle/killable.sol';\r\n\r\ncontract Rideshare is Killable {\r\n  struct Passenger {\r\n    uint price;\r\n    string destination;\r\n    passState state; // initial, driverConfirmed, passengerConfirmed, enRoute, completion, canceled\r\n  }\r\n enum passState {initial,driverConfirmed,passengerConfirmed,enRoute,completion,canceled}\r\n  struct Ride {\r\n    address driver;\r\n    uint drivingCost;\r\n    uint capacity;\r\n    string originAddress;\r\n    string destAddress;\r\n    uint createdAt;\r\n    uint confirmedAt;\r\n    uint departAt;\r\n    mapping (address => Passenger) passengers;\r\n    address[] passengerAccts;\r\n  }\r\n  \r\n  Ride[] public rides;\r\n  uint public rideCount;\r\n  mapping(address=>string) public dropoff;\r\n  \r\n  // for now, only drivers can create Rides\r\n  function createRide(uint _driverCost, uint _capacity, string _originAddress, string _destAddress, uint _confirmedAt, uint _departAt) {\r\n    address[] memory _passengerAccts;\r\n    rides.push(Ride(msg.sender, _driverCost, _capacity, _originAddress, _destAddress, block.timestamp, _confirmedAt, _departAt, _passengerAccts));\r\n  }\r\n  \r\n  // called by passenger\r\n  function joinRide(uint rideNumber,string destination) public payable {\r\n    Ride curRide = rides[rideNumber];\r\n    require(msg.value == curRide.drivingCost);\r\n    require(msg.sender!=curRide.driver);\r\n    require(curRide.capacity!=0);\r\n    var passenger = curRide.passengers[msg.sender];    \r\n    \r\n    passenger.price = msg.value;\r\n    passenger.state = passState.initial;\r\n    passenger.destination=destination;\r\n    rides[rideNumber].passengerAccts.push(msg.sender) ; \r\n    curRide.capacity--;\r\n  }\r\n  \r\n  function getPassengers(uint rideNumber) view public returns(address[]) {\r\n    return rides[rideNumber].passengerAccts;\r\n  }\r\n\r\n  function getPassengerRideState(uint rideNumber, address passenger) view public returns(passState) {\r\n    return rides[rideNumber].passengers[passenger].state;\r\n  }\r\n\r\n  function getRide(uint rideNumber) public view returns (\r\n    address _driver,\r\n    uint _drivingCost,\r\n    uint _capacity,\r\n    string _originAddress,\r\n    string _destAddress,\r\n    uint _createdAt,\r\n    uint _confirmedAt,\r\n    uint _departAt\r\n  ) {\r\n    Ride ride = rides[rideNumber];\r\n    return (\r\n      ride.driver,\r\n      ride.drivingCost,\r\n      ride.capacity,\r\n      ride.originAddress,\r\n      ride.destAddress,\r\n      ride.createdAt,\r\n      ride.confirmedAt,\r\n      ride.departAt\r\n    );\r\n  }\r\n\r\n  function getRideCount() public constant returns(uint) {\r\n    return rides.length;\r\n  }\r\n  \r\n  function passengerInRide(uint rideNumber, address passengerAcct) returns (bool) {\r\n    Ride curRide = rides[rideNumber];\r\n    for(uint i = 0; i < curRide.passengerAccts.length; i++) {\r\n      if (curRide.passengerAccts[i] == passengerAcct) {\r\n        return true;\r\n      }\r\n    }\r\n    return false;\r\n  }\r\n  \r\n  function cancelRide(uint rideNumber) {\r\n    Ride curRide = rides[rideNumber];\r\n    if (msg.sender == curRide.driver) {\r\n      for (uint i = 0; i < curRide.passengerAccts.length; i++) {\r\n        curRide.passengerAccts[i].transfer(curRide.passengers[curRide.passengerAccts[i]].price);\r\n        \r\n      }\r\n      kill();\r\n\r\n    } \r\n    \r\n    require(block.timestamp < curRide.createdAt+10 minutes);\r\n\r\n     if (passengerInRide(rideNumber, msg.sender)) {\r\n      msg.sender.transfer(curRide.passengers[msg.sender].price);\r\n      curRide.capacity++;\r\n      delete dropoff[msg.sender];\r\n    }\r\n  }\r\n  \r\n  // called by passenger\r\n  function confirmDriverMet(uint rideNumber) {\r\n    require(passengerInRide(rideNumber, msg.sender));\r\n    Ride curRide = rides[rideNumber];\r\n    if (curRide.passengers[msg.sender].state == passState.driverConfirmed) {\r\n      curRide.passengers[msg.sender].state = passState.enRoute;\r\n    } else {\r\n      curRide.passengers[msg.sender].state = passState.passengerConfirmed;\r\n    }\r\n  }\r\n  \r\n  // called by driver\r\n  function confirmPassengersMet(uint rideNumber, address[] passengerAddresses) {\r\n    Ride curRide = rides[rideNumber];\r\n    require(msg.sender == curRide.driver);\r\n    for(uint i=0; i < passengerAddresses.length; i++) {\r\n      if (curRide.passengers[passengerAddresses[i]].state == passState.passengerConfirmed) {\r\n        curRide.passengers[passengerAddresses[i]].state = passState.enRoute;\r\n      } else {\r\n        curRide.passengers[passengerAddresses[i]].state = passState.driverConfirmed;\r\n      }\r\n    }\r\n    // require(rides[rideNumber].state == \"confirmed\");\r\n  }\r\n\r\n  function enRouteList(uint rideNumber)  public  {\r\n    Ride curRide = rides[rideNumber];\r\n    for(uint i = 0; i < curRide.passengerAccts.length; i++) {\r\n      if (curRide.passengers[curRide.passengerAccts[i]].state == passState.enRoute) {\r\n          dropoff[curRide.passengerAccts[i]]=curRide.passengers[curRide.passengerAccts[i]].destination;\r\n      }\r\n    }\r\n  }\r\n\r\n  \r\n  \r\n  // called by passenger\r\n  function arrived(uint rideNumber) {\r\n    require(passengerInRide(rideNumber, msg.sender));\r\n    Ride curRide = rides[rideNumber];\r\n    curRide.driver.transfer(curRide.passengers[msg.sender].price);\r\n    curRide.passengers[msg.sender].state = passState.completion;\r\n  }\r\n}",
  "sourcePath": "C:\\Users\\manoj\\Desktop\\Finalyr\\contracts\\Rideshare.sol",
  "compiler": {
    "name": "solc",
    "version": "0.4.26+commit.4563c3fc.Emscripten.clang"
  },
  "schemaVersion": "3.4.7",
  "updatedAt": "2022-06-17T17:53:34.976Z",
  "networkType": "ethereum",
  "devdoc": {
    "methods": {}
  },
  "userdoc": {
    "methods": {}
  }
}